{
  "transactions": [
    {
      "hash": "0xbbbda6f046c32c9a65a60cf716ab1c3d2eecbfb821dc1d8f4838806f2f5ce4f3",
      "transactionType": "CALL",
      "contractName": null,
      "contractAddress": "0x710051f799d05afa3953b7af11a38c214bc45b3f",
      "function": "addCorridor(bytes32,bool,uint256,uint256,uint256,string)",
      "arguments": [
        "0x5f77ed646fc9a3d3e3b9054bffa5c91200b450c9593cb1b4fa9cbbc35e12eef2",
        "true",
        "10000000",
        "10000000000",
        "16240000",
        "IDR"
      ],
      "transaction": {
        "from": "0x3b0eb4bd67d7243a4dbe684e9c922d9c3919afbf",
        "to": "0x710051f799d05afa3953b7af11a38c214bc45b3f",
        "gas": "0xc982",
        "value": "0x0",
        "input": "0x9f27556a5f77ed646fc9a3d3e3b9054bffa5c91200b450c9593cb1b4fa9cbbc35e12eef20000000000000000000000000000000000000000000000000000000000000001000000000000000000000000000000000000000000000000000000000098968000000000000000000000000000000000000000000000000000000002540be4000000000000000000000000000000000000000000000000000000000000f7cd8000000000000000000000000000000000000000000000000000000000000000c000000000000000000000000000000000000000000000000000000000000000034944520000000000000000000000000000000000000000000000000000000000",
        "nonce": "0x26",
        "chainId": "0x190f1b41"
      },
      "additionalContracts": [],
      "isFixedGasLimit": false
    }
  ],
  "receipts": [
    {
      "status": "0x1",
      "cumulativeGasUsed": "0x0",
      "logs": [],
      "logsBloom": "0x00000000000000000000000000000000000000000000000000000000000000000000000000000000000000000000000000000000000000000000000000000000000000000000000000000000000000000000000000000000000000000000000000000000000000000000000000000000000000000000000000000000000000000000000000000000000000000000000000000000000000000000000000000000000000000000000000000000000000000000000000000000000000000000000000000000000000000000000000000000000000000000000000000000000000000000000000000000000000000000000000000000000000000000000000000000",
      "type": "0x0",
      "transactionHash": "0xbbbda6f046c32c9a65a60cf716ab1c3d2eecbfb821dc1d8f4838806f2f5ce4f3",
      "transactionIndex": "0x2",
      "blockHash": "0x4abaecc62ae4c28778d8d873277e1436b4126df3e39733a9b4949586cf4f0db4",
      "blockNumber": "0x63107a",
      "gasUsed": "0xb0f",
      "effectiveGasPrice": "0xe8d4a51000",
      "from": "0x3b0eb4bd67d7243a4dbe684e9c922d9c3919afbf",
      "to": "0x710051f799d05afa3953b7af11a38c214bc45b3f",
      "contractAddress": null
    }
  ],
  "libraries": [],
  "pending": [],
  "returns": {},
  "timestamp": 1773722579815,
  "chain": 420420417,
  "commit": "fc57a28"
}