{
  "transactions": [
    {
      "hash": "0x769aecdc0e865dcdbaac9c29b097d683556f442f3bfd5d1372abd1e4661856c9",
      "transactionType": "CALL",
      "contractName": null,
      "contractAddress": "0x710051f799d05afa3953b7af11a38c214bc45b3f",
      "function": "addCorridor(bytes32,bool,uint256,uint256,uint256,string)",
      "arguments": [
        "0xd34d40b0b37d9f5b9a9de07eabdb568e8c23ffdfa3f7da8774f4aab89b8176eb",
        "true",
        "10000000",
        "10000000000",
        "3740000",
        "PEN"
      ],
      "transaction": {
        "from": "0x3b0eb4bd67d7243a4dbe684e9c922d9c3919afbf",
        "to": "0x710051f799d05afa3953b7af11a38c214bc45b3f",
        "gas": "0xc993",
        "value": "0x0",
        "input": "0x9f27556ad34d40b0b37d9f5b9a9de07eabdb568e8c23ffdfa3f7da8774f4aab89b8176eb0000000000000000000000000000000000000000000000000000000000000001000000000000000000000000000000000000000000000000000000000098968000000000000000000000000000000000000000000000000000000002540be400000000000000000000000000000000000000000000000000000000000039116000000000000000000000000000000000000000000000000000000000000000c0000000000000000000000000000000000000000000000000000000000000000350454e0000000000000000000000000000000000000000000000000000000000",
        "nonce": "0x24",
        "chainId": "0x190f1b41"
      },
      "additionalContracts": [],
      "isFixedGasLimit": false
    }
  ],
  "receipts": [
    {
      "status": "0x1",
      "cumulativeGasUsed": "0x0",
      "logs": [],
      "logsBloom": "0x00000000000000000000000000000000000000000000000000000000000000000000000000000000000000000000000000000000000000000000000000000000000000000000000000000000000000000000000000000000000000000000000000000000000000000000000000000000000000000000000000000000000000000000000000000000000000000000000000000000000000000000000000000000000000000000000000000000000000000000000000000000000000000000000000000000000000000000000000000000000000000000000000000000000000000000000000000000000000000000000000000000000000000000000000000000",
      "type": "0x0",
      "transactionHash": "0x769aecdc0e865dcdbaac9c29b097d683556f442f3bfd5d1372abd1e4661856c9",
      "transactionIndex": "0x2",
      "blockHash": "0x9afe981f2c9cf069d7bf76718dd4e677e8035452c321e3ddfd7e60c77e041b32",
      "blockNumber": "0x631070",
      "gasUsed": "0xb0f",
      "effectiveGasPrice": "0xe8d4a51000",
      "from": "0x3b0eb4bd67d7243a4dbe684e9c922d9c3919afbf",
      "to": "0x710051f799d05afa3953b7af11a38c214bc45b3f",
      "contractAddress": null
    }
  ],
  "libraries": [],
  "pending": [],
  "returns": {},
  "timestamp": 1773722560447,
  "chain": 420420417,
  "commit": "fc57a28"
}