{
  "transactions": [
    {
      "hash": "0xa6edd4d5e7215e99b8848908c69182480941cb8e67dc2baff4b11f35d7c6dc01",
      "transactionType": "CALL",
      "contractName": null,
      "contractAddress": "0x710051f799d05afa3953b7af11a38c214bc45b3f",
      "function": "addCorridor(bytes32,bool,uint256,uint256,uint256,string)",
      "arguments": [
        "0x3a2ce02b04ad478274003f8b9389c70757611a6b384364c147c8fcae18535408",
        "true",
        "10000000",
        "10000000000",
        "17200000",
        "MXN"
      ],
      "transaction": {
        "from": "0x3b0eb4bd67d7243a4dbe684e9c922d9c3919afbf",
        "to": "0x710051f799d05afa3953b7af11a38c214bc45b3f",
        "gas": "0xc993",
        "value": "0x0",
        "input": "0x9f27556a3a2ce02b04ad478274003f8b9389c70757611a6b384364c147c8fcae185354080000000000000000000000000000000000000000000000000000000000000001000000000000000000000000000000000000000000000000000000000098968000000000000000000000000000000000000000000000000000000002540be400000000000000000000000000000000000000000000000000000000000106738000000000000000000000000000000000000000000000000000000000000000c000000000000000000000000000000000000000000000000000000000000000034d584e0000000000000000000000000000000000000000000000000000000000",
        "nonce": "0x27",
        "chainId": "0x190f1b41"
      },
      "additionalContracts": [],
      "isFixedGasLimit": false
    }
  ],
  "receipts": [
    {
      "status": "0x1",
      "cumulativeGasUsed": "0x0",
      "logs": [],
      "logsBloom": "0x00000000000000000000000000000000000000000000000000000000000000000000000000000000000000000000000000000000000000000000000000000000000000000000000000000000000000000000000000000000000000000000000000000000000000000000000000000000000000000000000000000000000000000000000000000000000000000000000000000000000000000000000000000000000000000000000000000000000000000000000000000000000000000000000000000000000000000000000000000000000000000000000000000000000000000000000000000000000000000000000000000000000000000000000000000000",
      "type": "0x0",
      "transactionHash": "0xa6edd4d5e7215e99b8848908c69182480941cb8e67dc2baff4b11f35d7c6dc01",
      "transactionIndex": "0x2",
      "blockHash": "0xcbcf3da221d88844f4e91b4b82618deaeb6c62efee4f7345ed9d55f2a905d9b1",
      "blockNumber": "0x63107f",
      "gasUsed": "0xb0f",
      "effectiveGasPrice": "0xe8d4a51000",
      "from": "0x3b0eb4bd67d7243a4dbe684e9c922d9c3919afbf",
      "to": "0x710051f799d05afa3953b7af11a38c214bc45b3f",
      "contractAddress": null
    }
  ],
  "libraries": [],
  "pending": [],
  "returns": {},
  "timestamp": 1773722589375,
  "chain": 420420417,
  "commit": "fc57a28"
}