{
  "transactions": [
    {
      "hash": "0x05a55045cdd99e0eaa40d1587fc902e76c52277a54d6edf7a2f6fd51d407c0ed",
      "transactionType": "CALL",
      "contractName": null,
      "contractAddress": "0x710051f799d05afa3953b7af11a38c214bc45b3f",
      "function": "addCorridor(bytes32,bool,uint256,uint256,uint256,string)",
      "arguments": [
        "0xf290c2c05f8ba5629bdc1ed81627026b1c9923d606872163598de9f50a023f23",
        "true",
        "10000000",
        "10000000000",
        "4100000",
        "COP"
      ],
      "transaction": {
        "from": "0x3b0eb4bd67d7243a4dbe684e9c922d9c3919afbf",
        "to": "0x710051f799d05afa3953b7af11a38c214bc45b3f",
        "gas": "0xc993",
        "value": "0x0",
        "input": "0x9f27556af290c2c05f8ba5629bdc1ed81627026b1c9923d606872163598de9f50a023f230000000000000000000000000000000000000000000000000000000000000001000000000000000000000000000000000000000000000000000000000098968000000000000000000000000000000000000000000000000000000002540be40000000000000000000000000000000000000000000000000000000000003e8fa000000000000000000000000000000000000000000000000000000000000000c00000000000000000000000000000000000000000000000000000000000000003434f500000000000000000000000000000000000000000000000000000000000",
        "nonce": "0x28",
        "chainId": "0x190f1b41"
      },
      "additionalContracts": [],
      "isFixedGasLimit": false
    }
  ],
  "receipts": [
    {
      "status": "0x1",
      "cumulativeGasUsed": "0x0",
      "logs": [],
      "logsBloom": "0x00000000000000000000000000000000000000000000000000000000000000000000000000000000000000000000000000000000000000000000000000000000000000000000000000000000000000000000000000000000000000000000000000000000000000000000000000000000000000000000000000000000000000000000000000000000000000000000000000000000000000000000000000000000000000000000000000000000000000000000000000000000000000000000000000000000000000000000000000000000000000000000000000000000000000000000000000000000000000000000000000000000000000000000000000000000",
      "type": "0x0",
      "transactionHash": "0x05a55045cdd99e0eaa40d1587fc902e76c52277a54d6edf7a2f6fd51d407c0ed",
      "transactionIndex": "0x2",
      "blockHash": "0x5f91f5b1c4c25c228df76393924be18a62b19581a4ae0c9d0e42a4035ba77738",
      "blockNumber": "0x631085",
      "gasUsed": "0xb0f",
      "effectiveGasPrice": "0xe8d4a51000",
      "from": "0x3b0eb4bd67d7243a4dbe684e9c922d9c3919afbf",
      "to": "0x710051f799d05afa3953b7af11a38c214bc45b3f",
      "contractAddress": null
    }
  ],
  "libraries": [],
  "pending": [],
  "returns": {},
  "timestamp": 1773722602337,
  "chain": 420420417,
  "commit": "fc57a28"
}