{
  "transactions": [
    {
      "hash": "0x3b148a177e1c9107f1e5ffe2fb2a517161b42109b2f83b96675e6c5eeb1a5aeb",
      "transactionType": "CALL",
      "contractName": null,
      "contractAddress": "0x710051f799d05afa3953b7af11a38c214bc45b3f",
      "function": "addCorridor(bytes32,bool,uint256,uint256,uint256,string)",
      "arguments": [
        "0xf87909b00bbffc354a6fd554bf1d006537690693fb645cbf8686f5b764e9d202",
        "true",
        "10000000",
        "10000000000",
        "56200000",
        "PHP"
      ],
      "transaction": {
        "from": "0x3b0eb4bd67d7243a4dbe684e9c922d9c3919afbf",
        "to": "0x710051f799d05afa3953b7af11a38c214bc45b3f",
        "gas": "0xc993",
        "value": "0x0",
        "input": "0x9f27556af87909b00bbffc354a6fd554bf1d006537690693fb645cbf8686f5b764e9d2020000000000000000000000000000000000000000000000000000000000000001000000000000000000000000000000000000000000000000000000000098968000000000000000000000000000000000000000000000000000000002540be4000000000000000000000000000000000000000000000000000000000003598b4000000000000000000000000000000000000000000000000000000000000000c000000000000000000000000000000000000000000000000000000000000000035048500000000000000000000000000000000000000000000000000000000000",
        "nonce": "0x25",
        "chainId": "0x190f1b41"
      },
      "additionalContracts": [],
      "isFixedGasLimit": false
    }
  ],
  "receipts": [
    {
      "status": "0x1",
      "cumulativeGasUsed": "0x0",
      "logs": [],
      "logsBloom": "0x00000000000000000000000000000000000000000000000000000000000000000000000000000000000000000000000000000000000000000000000000000000000000000000000000000000000000000000000000000000000000000000000000000000000000000000000000000000000000000000000000000000000000000000000000000000000000000000000000000000000000000000000000000000000000000000000000000000000000000000000000000000000000000000000000000000000000000000000000000000000000000000000000000000000000000000000000000000000000000000000000000000000000000000000000000000",
      "type": "0x0",
      "transactionHash": "0x3b148a177e1c9107f1e5ffe2fb2a517161b42109b2f83b96675e6c5eeb1a5aeb",
      "transactionIndex": "0x2",
      "blockHash": "0xffe7159fd3aa293fd84fa2d56ddd7a500780e7d50f61f1204d0beb5e21b0e5d9",
      "blockNumber": "0x631075",
      "gasUsed": "0xb0f",
      "effectiveGasPrice": "0xe8d4a51000",
      "from": "0x3b0eb4bd67d7243a4dbe684e9c922d9c3919afbf",
      "to": "0x710051f799d05afa3953b7af11a38c214bc45b3f",
      "contractAddress": null
    }
  ],
  "libraries": [],
  "pending": [],
  "returns": {},
  "timestamp": 1773722570476,
  "chain": 420420417,
  "commit": "fc57a28"
}